:030000000219459D
:0C194500787FE4F6D8FD75813D0215EABC
:1000030031003200330034003500000000000000EE
:1000130000000000000000000000000000000000DD
:100023000000000000000000000000222C2020FF40
:1000330020282600F80000FF0000028242221A074F
:10004300020202020F40807F000000020CC0000881
:100053000808FF080808F800000002027F80412119
:10006300110D030D1121418181001010D0FF901457
:10007300E4AFA4A4A4AFE4040000040300FF0089D8
:100083004B2A1A0E1A2A4B888000101090909090D9
:10009300901010FF101011161000002060203F1068
:1000A300101000030C102040F800000000000000B6
:1000B300000000000000000000000000000000003D
:1000C300000000000000000000000000000000002D
:1000D300000000000000000000000000000000001D
:1000E300000000000000000000000000000000000D
:1000F30000000000000000000000000000000000FD
:1001030000000000000000000000000000000000EC
:1001130000000000000000000000000000000000DC
:100123000000000000000000000002020202C2B250
:100133008E82828282828202020008040201FF40D0
:10014300404040404040FF000000000010600418A1
:100153000000FF00000000000000818141412111E7
:1001630009070105091121C1010000000000000079
:10017300000000000000000000000000000000007C
:10018300000000000000000000000000000000006C
:10019300000000000000000000000000000000005C
:1001A300000000000000000000000000000000004C
:1001B300000000000000000000000000000000003C
:1001C300000000000000000000000000000000002C
:1001D300000000000000000000000000000000001C
:1001E300000000000000000000000000000000000C
:1001F30000000000000000000000000000000000FC
:10020300000000000000000000000202FAAAABAAEE
:10021300FA0202F20302FA02020000888B48281A4B
:100223000B080848884A3B0000000000040404044B
:10023300FC0404040404FC000000008040201806B1
:100243000100004080403F0000000000000000006B
:10025300000000000000000000000000000000009B
:10026300000000000000000000000000000000008B
:10027300000000000000000000000000000000007B
:10028300000000000000000000000000000000006B
:10029300000000000000000000000000000000005B
:1002A300000000000000000000000000000000004B
:1002B300000000000000000000000000000000003B
:1002C300000000000000000000000000000000002B
:1002D300000000000000000000000000000000001B
:1002E30000000000000000000000080888C8A8986B
:1002F3008FE888888888880808000201003F00008A
:1003030000FF000010201F0000000000000000009C
:1003130000000000000000000000000000000000DA
:1003230000000000000000000000000000000000CA
:1003330000000000000000000000000000000000BA
:1003430000000000000000000000000000000000AA
:10035300000000000000000000000000000000009A
:10036300000000000000000000000000000000008A
:10037300000000000000000000000000000000007A
:10038300000000000000000000000000000000006A
:10039300000000000000000000000000000000005A
:1003A30000000000000000000000404042CC0000BC
:1003B30000FF0000FE0000FF00000000003F108867
:1003C300601F00003F0000FF00002030AC633004DA
:1003D300A4643C27E40404040000226722121220D0
:1003E300110D41817F01050930001010D0FF9014D9
:1003F300E4AFA4A4A4AFE4040000040300FF008955
:100403004B2A1A0E1A2A4B88800010109090909055
:10041300901010FF101011161000002060203F10E4
:10042300101000030C102040F80000000000000032
:1004330000000000000000000000000000000000B9
:1004430000000000000000000000000000000000A9
:100453000000000000000000000000000000000099
:100463000000000000000000000000000000000089
:100473000000002F000000000700070000147F1495
:100483007F1400242A7F2A12006264081323003693
:100493004955225000000503000000001C224100C2
:1004A300000041221C000014083E08140008083E06
:1004B3000808000000A06000000808080808000001
:1004C30060600000002010080402003E5149453ED0
:1004D3000000427F400000426151494600214145EE
:1004E3004B31001814127F10002745454539003C55
:1004F3004A49493000017109050300364949493623
:1005030000064949291E0000363600000000563611
:1005130000000008142241000014141414140000F5
:100523004122140800020151090600324959513E83
:10053300007C1211127C007F49494936003E41413B
:100543004122007F4141221C007F49494941007FEC
:1005530009090901003E4149497A007F0808087FDB
:100563000000417F4100002040413F01007F08140B
:100573002241007F40404040007F020C027F007F09
:100583000408107F003E4141413E007F09090906EE
:10059300003E4151215E007F091929460046494921
:1005A30049310001017F0101003F4040403F001FEE
:1005B3002040201F003F4038403F0063140814636D
:1005C30000070870080700615149454300007F4157
:1005D300410000552A552A55000041417F0000047F
:1005E30002010204004040404040000001020400B8
:1005F300002054545478007F48444438003844441D
:10060300442000384444487F0038545454180008A8
:100613007E0901020018A4A4A47C007F08040478C6
:100623000000447D4000004080847D00007F10284E
:1006330044000000417F4000007C04180478007CE3
:100643000804047800384444443800FC2424241863
:100653000018242418FC007C08040408004854549F
:10066300542000043F444020003C4040207C001CB8
:100673002040201C003C4030403C004428102844CB
:10068300001CA0A0A07C004464544C441414141413
:10069300141400000000000000000000000000002F
:1006A3000000000000F800000000000000333000EC
:1006B300000000100C06100C0600000000000000F3
:1006C300000040C07840C0784000043F04043F0469
:1006D3000400007088FC08300000001820FF211E71
:1006E3000000F008F000E018000000211C031E21A8
:1006F3001E0000F00888700000001E212324192723
:10070300211010160E000000000000000000000081
:100713000000000000E01804020000000007182099
:10072300400000020418E000000000402018070009
:100733000000404080F0804040000202010F0102AF
:100743000200000000F0000000000101011F010190
:100753000100000000000000000080B070000000F5
:100763000000000000000000000000010101010181
:100773000101000000000000000000303000000014
:1007830000000000000080601804006018060100EB
:10079300000000E010080810E000000F10202010F7
:1007A3000F00001010F8000000000020203F202060
:1007B30000000070080808887000003028242221F7
:1007C30030000030088888483000001820202011AD
:1007D3000E000000C02010F8000000070424243F8E
:1007E300240000F808888808080000192120201137
:1007F3000E0000E0108888180000000F112020115F
:100803000E0000380808C83808000000003F000048
:1008130000000070880808887000001C2221212233
:100823001C0000E010080810E00000003122221133
:100833000F00000000C0C0000000000000303000C6
:100843000000000000800000000000008060000045
:10085300000000008040201008000001020408107E
:10086300200040404040404040000404040404048D
:10087300040000081020408000000020100804023B
:100883000100007048080808F0000000003036013D
:100893000000C030C828E810E000071827242314FC
:1008A3000B000000C038E0000000203C23020227B8
:1008B300382008F8888888700000203F2020201105
:1008C3000E00C03008080808380007182020201040
:1008D300080008F808080810E000203F2020201036
:1008E3000F0008F88888E8081000203F2020232004
:1008F300180008F88888E8081000203F200003004B
:100903000000C03008080838000007182020221E05
:10091300020008F808000008F808203F210101211F
:100923003F20000808F8080800000020203F20208E
:10093300000000000808F8080800C08080807F00DD
:10094300000008F888C028180800203F2001263836
:10095300200008F8080000000000203F202020208D
:10096300300008F8F800F8F80800203F003F003F87
:10097300200008F830C00008F808203F20000718BE
:100983003F00E01008080810E0000F10202020109E
:100993000F0008F808080808F000203F21010101B2
:1009A3000000E01008080810E0000F182424385055
:1009B3004F0008F8888888887000203F2000030CC7
:1009C30030200070880808083800003820212122D0
:1009D3001C00180808F8080818000000203F200031
:1009E300000008F808000008F808001F2020202055
:1009F3001F000878880000C83808000007380E0177
:100A03000000F80800F80008F800033C0700073C62
:100A13000300081868808068180820302C03032C12
:100A230030200838C800C83808000000203F2000E4
:100A3300000010080808C8380800203826212020A4
:100A43001800000000FE020202000000007F404088
:100A53004000000C30C00000000000000001063818
:100A6300C00000020202FE000000004040407F0080
:100A73000000000004020202040000000000000065
:100A83000000000000000000000080808080808063
:100A9300808000020204000000000000000000004B
:100AA30000000000808080800000001924222222A0
:100AB3003F2008F8008080000000003F1120201133
:100AC3000E000000008080800000000E1120202016
:100AD3001100000000808088F800000E1120201013
:100AE3003F200000808080800000001F22222222FD
:100AF3001300008080F0888888180020203F202081
:100B030000000000808080808000006B94949493A8
:100B1300600008F8008080800000203F2100002052
:100B23003F2000809898000000000020203F2020F4
:100B33000000000000809898000000C08080807F43
:100B4300000008F8000080808000203F24022D3040
:100B53002000000808F8000000000020203F2020AB
:100B630000008080808080808000203F20003F2024
:100B7300003F8080008080800000203F2100002013
:100B83003F200000808080800000001F2020202064
:100B93001F00808000808000000080FFA1202011C2
:100BA3000E000000008080808000000E112020A035
:100BB300FF80808080008080800020203F212000F3
:100BC30001000000808080808000003324242424DE
:100BD3001900008080E0808000000000001F2020BA
:100BE30000008080000000808000001F2020201073
:100BF3003F20808080000080808000010E30080646
:100C0300010080800080008080800F300C030C3056
:100C13000F0000808000808080000020312E0E3184
:100C23002000808080000080808080818E70180684
:100C3300010000808080808080000021302C2221F0
:100C4300300000000000807C020200000000003F32
:100C5300404000000000FF00000000000000FF0013
:100C630000000002027C800000000040403F0000C2
:100C7300000000060101020204040000000000005D
:020C830000006F
:041820007F1E7E00A9
:10182400D3EF9400EE940040147DDC7C05ED1D7034
:0D183400011CED4C70F7EF1F70E61E80E305
:011841002284
:09195100D2A0D2A1C2A1C2A022C1
:09195A00C2A0C2A1D2A0D2A122B8
:0717B200AD071219517F7809
:1017B900E4FEEF30E704D2A18002C2A1D2A0C2A008
:0E17C900EF25E0FF0EBE08EAD2A1D2A0C2A01A
:0117D70022EF
:0D186000740D2BF58274003AF583E493FFBC
:10186D001217B27F401217B9AF051217B902195AE4
:0D187D0024B0FF12188A7F0112188A7F1014
:10188A001217B2E4FF1217B9AF051217B902195AA3
:10184200AC07ED24B0FF12188AEC54F0C4540F44D4
:0E18520010FF12188AEC540F4401FF02188A8E
:0218B300AC0780
:1018B500E4FBEB12187DE4FAAF0412186D0ABA8046
:0518C500F70BBB08ED6C
:0118CA0022FB
:1018E200E4FCEC12187DE4FBE4FF12186D0BBB80E4
:0518F200F70CBC08ED3D
:0118F70022CE
:10139D007FF47E011218247FAE12188AE4FF121812
:1013AD00857F4012188A7F8112188A7FCF12188A82
:1013BD007FA112188A7FC812188A7FA612188A7FF9
:1013CD00A812188A7F3F12188A7FD312188AE4FF59
:1013DD0012188A7FD512188A7F8012188A7FD91227
:1013ED00188A7FF112188A7FDA12188A7F12121862
:1013FD008A7FDB12188A7F4012188A7F2012188A82
:10140D007F0212188A7F8D12188A7F1412188A7F14
:10141D00A412188A7FA612188A7FAF12188AE4FFC9
:09142D001218B3E4FDFF0218429D
:0C165B008F218C228D238B248A25892668
:10166700E4F527FCF528AB24AA25A9268528827549
:10167700830012118E604824E0F527E521D3947E7C
:10168700400BE4F5210523E52370020522AD23AFC6
:1016970021121842E4FC75F006E527A4246DF582B3
:1016A700E5F03404F583E5822CF582E435831218DE
:0F16B700680CBC06E174062521F521052880A7E3
:0116C6002201
:0C1258007A0079037BFF7D027C007F2878
:0C1264008F158C168D178B188A19891AAB
:10127000E4F51BFCF51CAB18AA19A91A851C82758C
:10128000830012118E607324E0F51BE515D394786A
:10129000400BE4F5150517E51770020516AD17AFFD
:1012A00015121842E4FC75F010E51BA42CF582E43D
:1012B00035F0F583E5822495F582E583340612182E
:1012C000680CBC08E1E51704FDAF15121842E4FCF8
:1012D00075F010E51BA42CF582E435F0F583E5826A
:1012E000249DF582E58334061218680CBC08E1746D
:0A12F000082515F515051C021276FD
:0112FA0022D1
:0A16C7007B097A007D027C007F2879
:0616D1008C158D16A9071F
:1016D700E4FCEBAE027805C333CE33CED8F9FBAAD0
:1016E70006AF01AD16121842E4FC1218600BBB00DE
:1016F700010A0CBC10F4AF01E51604FD121842E410
:0D170700FC1218600BBB00010A0CBC10F4B2
:0117140022B2
:0A1567008F088C098D0A8A0B8B0C8B
:10157100E4F512F513AE0DAF0EFC7D081211CDEDA1
:101581004CAE0DAF0E700AFC7D081211CD8F148088
:101591000B7C007D081211CDEF04F514850A14C3EC
:1015A100E514950EE50D6480F8748098503AAD14F9
:1015B100AF08121842AC08ECC3950CE50B6480F837
:1015C100748098501FAB0FAA10A9110513E513AE33
:1015D100127002051214F5828E8312118EFF1218F9
:0815E1006D0C80D3051480B7E6
:0115E90022DF
:1018F8007FF47E011218CB1212FB7F967E0012181D
:04190800CB02139D5E
:1017D800E4FF1217158E298F2A7F021217158E2BF8
:1017E8008F2C7F041217158E2D8F2E7F061217153A
:0517F8008E2F8F30224E
:100EE1007B017A00E4FDFC7F181216D17B027A00A7
:100EF100E4FDFC7F281216D17B037A00E4FDFC7F20
:100F0100391216D17B047A00E4FDFC7F4A1216D116
:100F11007BFF7A007903E4FDFC7F5B121264D3E569
:100F21002A942CE529648094814064E52A94CCE5D7
:100F310029648094815058E52C94CCE52B648094ED
:100F410081404CE52C94F4E52B648094815040E57C
:100F51002E94D6E52D648094814034E52E94F4E5F9
:100F61002D648094815028E53094CCE52F648094E1
:100F710081401CE53094F4E52F6480948150101277
:100F810016C77B0A7A007D027C007F391216D1D305
:100F9100E52A94E0E529648094814066E52A94F489
:100FA100E52964809481505AE52C9490E52B648066
:100FB1009481404EE52C94CCE52B64809481504281
:100FC100E52E9490E52D648094814036E52E94D6EB
:100FD100E52D64809481502AE53094CCE52F64801E
:100FE1009481401EE53094F4E52F64809481501281
:100FF1007B101216C97B117A007D027C007F3912A9
:1010010016D1D3E52A942CE529648094814066E5C4
:101011002A94CCE52964809481505AE52C942CE5DE
:101021002B64809481404EE52C94B8E52B64809428
:10103100815042E52E942CE52D648094814036E563
:101041002E94C2E52D64809481502AE530942CE5DC
:101051002F64809481401EE53094B8E52F6480941C
:101061008150127B171216C97B187A007D027C0011
:101071007F391216D17F647E001218CB7B1A1216AB
:0E108100C97B1B7A007D027C007F390216D1EC
:100C85007B017A00E4FDFC7F181216D17B027A0005
:100C9500E4FDFC7F281216D17B037A00E4FDFC7F7E
:100CA500391216D17B047A00E4FDFC7F4A1216D175
:100CB5007BFF7A007905E4FDFC7F5B121264D3E5C6
:100CC5002A94E0E529648094814057E52A94F4E567
:100CD5002964809481504BE52C9490E52B64809495
:100CE50081403FE52C94CCE52B648094815033E51D
:100CF5002E94D6E52D648094814027E52E94F4E565
:100D05002D64809481501BE53094CCE52F6480944C
:100D150081400FE53094F4E52F64809481500312EF
:100D25001258D3E52A94E0E52964809481405BE577
:100D35002A94F4E52964809481504FE52C9490E53C
:100D45002B648094814043E52C94CCE52B648094FE
:100D5500815037E52E9490E52D64809481402BE5F4
:100D65002E94D6E52D64809481501FE53094CCE512
:100D75002F648094814013E53094F4E52F648094CA
:100D85008150077A00790512125CD3E52A94E0E5D3
:100D95002964809481405DE52A94F4E52964809472
:100DA500815051E52C9490E52B648094814045E574
:100DB5002C94C2E52B648094815039E52E942CE562
:100DC5002D64809481402DE52E94CCE52D6480948E
:100DD500815021E530942CE52F648094814015E500
:100DE5003094C2E52F6480948150097BFF7A0079A5
:100DF5000712125ED3E52A94E0E5296480948140C8
:100E05005DE52A94F4E529648094815051E52C949C
:100E15002CE52B648094814045E52C9490E52B646A
:100E25008094815039E52E942CE52D648094814081
:100E35002DE52E94CCE52D648094815021E53094E8
:100E45002CE52F648094814015E53094C2E52F642C
:100E550080948150097BFF7A00790912125ED3E5EF
:100E65002A942CE52964809481405DE52A94CCE59B
:100E750029648094815051E52C942CE52B64809451
:100E8500814045E52C94B8E52B648094815039E583
:100E95002E942CE52D64809481402DE52E94C2E599
:100EA5002D648094815021E530942CE52F64809445
:100EB500814015E53094B8E52F6480948150097B15
:100EC500FF7A00790B12125E7F647E001218CB7BCD
:0C0ED5001A7A007D027C007F280216D1F2
:1014CF007B1D7A00E4FDFC7F181216D17B1E7A007B
:1014DF00E4FDFC7F281216D17B1F7A00E4FDFC7F10
:1014EF00391216D17B207A00E4FDFC7F4A1216D107
:1014FF007BFF7A007903E4FDFC7F5B1212647FDCD3
:10150F007E051218CB1216C77B0A7A007D027C006B
:10151F007F391216D17FB87E0B1218CB7B101216A3
:10152F00C97B117A007D027C007F391216D17FB8FA
:10153F007E0B1218CB7B171216C97B187A007D020F
:10154F007C007F391216D17FB87E0B1218CB121880
:08155F00E27FB87E0B0218CBFD
:101436007B1D7A00E4FDFC7F181216D17B1E7A0014
:10144600E4FDFC7F281216D17B1F7A00E4FDFC7FA9
:10145600391216D17B207A00E4FDFC7F4A1216D1A0
:101466007BFF7A007905E4FDFC7F5B1212647FDC6A
:101476007E051218CB1212587FB87E0B1218CB7B42
:10148600FF7A00790512125E7FB87E0B1218CB7BAD
:10149600FF7A00790712125E7FB87E0B1218CB7B9B
:1014A600FF7A00790912125E7FB87E0B1218CB7B89
:1014B600FF7A00790B12125E7FB87E0B1218CB12E0
:0914C60018E27FD07E070218CB6A
:1015EA001218F820801412182020800E3080FD3046
:1015FA0080081217D8120EE180F5208114121820E3
:10160A0020810E3081FD3081081217D8120C858096
:10161A00F52082171218202082113082FD1214CF71
:10162A003082081217D8120EE180F520831712189B
:10163A00202083113083FD1214363083081217D804
:10164A00120C8580F51218E27FE87E0312182480B6
:01165A0092FD
:1018CB007D527C03ED1D70011C144C70F7EF1F70E3
:0618DB00011E144E70EA2C
:0118E10022E4
:10189A00000000000000000000000000000000003E
:0918AA0000000000000000002213
:10108F008B398A3A893B8C3C8D3DC3E53C64809417
:10109F0080500FC3E4953DF53DE4953CF53C742D30
:1010AF008008AB39AA3AA93B74201211BBAE3CAFF2
:1010BF003D7C277D101211CDEF2430FFAB39053B5E
:1010CF00E53B7002053AF9AA3AEF1211BBAE3CAFFD
:1010DF003D7C277D101211CD8C3C8D3DAE3CAF3D3C
:1010EF007C037DE81211CDEF2430FFAB39053BE5D2
:1010FF003B7002053AF9AA3AEF1211BBAE3CAF3D75
:10110F007C037DE81211CD8C3C8D3DAE3CAF3D7C18
:10111F00007D641211CDEF2430FFAB39053BE53B69
:10112F007002053AF9AA3AEF1211BBAE3CAF3D7C03
:10113F00007D641211CD8C3C8D3DAE3CAF3D7C00EB
:10114F007D0A1211CDEF2430FFAB39053BE53B7023
:10115F0002053AF9AA3AEF1211BBAE3CAF3D7C0043
:10116F007D0A1211CD8C3C8D3DE53D2430FFAB390E
:0F117F00053BE53B7002053AF9AA3AEF0211BBB6
:0F190C00D2A3D2A212189AC2A312189AC2A22270
:0F191B00C2A3C2A212189AD2A212189AD2A32261
:0E192A00A20092A3D2A212189AC2A202189A88
:0D193800D2A212189AA2A3C2A212189A22DB
:0217FD008F1C3F
:1017FF00E4F51DE51C25E0F51C92A3D2A212189A60
:10180F00C2A212189A051DE51DC3940840E50219DE
:01181F003890
:10178900E4F51DD2A3F51CE51D25E0F51DD2A21235
:10179900189AA2A3E433421DC2A212189A051CE5A5
:0817A9001CC3940840E1AF1DD0
:0117B1002215
:04175D007DFB7C3460
:101761008F158C168D1712190C7F541217FDAF159A
:101771001217FDE516FF1217FDAF171217FD12190B
:081781001B7F0A7E000218CB59
:021715008F152E
:1017170012190C7F541217FDAF151217FD12190C71
:101727007F551217FD1217897518008F19C20012FD
:10173700192A121789751A008F1BD20012192AE568
:10174700197F00FEEF251BF517E51A3EF51612194E
:051757001BAE16AF17E8
:01175C00226A
:1012FB007F0812175D7F0912175D7DFB7C347F0A17
:10130B001217617DFB7C347F0B1217617D1B7C00F8
:10131B007F101217617D1B7C007F111217617D1BE3
:10132B007C007F121217617D1B7C007F13121761EB
:10133B007D027C207F141217617D027C207F1512A9
:10134B0017617D027C207F161217617D027C207F46
:10135B0017121761E4FDFC7F191217617D0D7CC21A
:10136B007F1B1217617D007C787F1E1217617D0039
:10137B007C787F1F1217617D007C787F20121761AC
:10138B007D007C787F211217617D017C147F1A020E
:02139B001761D8
:10118E00BB010CE58229F582E5833AF583E0225016
:10119E0006E92582F8E622BBFE06E92582F8E22260
:0D11AE00E58229F582E5833AF583E493227A
:1011BB00BB010689828A83F0225002F722BBFE0113
:0211CB00F3220D
:1011CD00C2D5EC30E709B2D5E4C39DFDE49CFCEE3D
:1011DD0030E715B2D5E4C39FFFE49EFE121203C3A0
:1011ED00E49DFDE49CFC800312120330D507C3E49B
:0611FD009FFFE49EFE22AC
:10120300BC000BBE0029EF8DF084FFADF022E4CCCF
:10121300F875F008EF2FFFEE33FEEC33FCEE9DEC98
:10122300984005FCEE9DFE0FD5F0E9E4CEFD22EDDE
:10123300F8F5F0EE8420D21CFEADF075F008EF2F28
:10124300FFED33FD4007985006D5F0F222C398FD19
:051253000FD5F0EA22B6
:00000001FF
